S01B000041744D656761333238502D4C454461727261792E73726563CC
S11300000C9434000C9451000C9451000C94510045
S11300100C9451000C9451000C9451000C94510018
S11300200C9451000C9451000C9451000C94510008
S11300300C9451000C9451000C9451000C945100F8
S11300400C9451000C9451000C9451000C945100E8
S11300500C9451000C9451000C9451000C945100D8
S11300600C9451000C94510011241FBECFEFD8E022
S1130070DEBFCDBF11E0A0E0B1E0E0E0F2E002C0FD
S113008005900D92A430B107D9F721E0A4E0B1E0C6
S113009001C01D92A530B207E1F70E94DC000C9468
S11300A0FE000C94000026B130E0082E02C0359505
S11300B027950A94E2F720FD12C0E7E8F3E13197AF
S11300C0F1F700C0000026B130E0A90102C0559547
S11300D047958A95E2F740FD04C081E0089580E0E9
S11300E0089580E00895809102018BB98091020106
S11300F0880F8093020180910201803819F483E013
S1130100809302010895CF93DF93C0E0D0E039C01B
S113011083EC99E00197F1F700C0000081E00E94B0
S1130120530081111092040182E00E94530088233D
S113013089F08091000190910101893C910550F072
S113014080910001909101018456910990930101DD
S11301508093000183E00E945300882389F08091FA
S11301600001909101018C339F4050F48091000173
S1130170909101018C599F4F90930101809300014C
S113018021962091000130910101ADECBCEC0E945C
S1130190EF00969587959695879596958795C817B8
S11301A0D90708F4B5CFDF91CF9108958FEF8AB9BD
S11301B088B18F6088B908950E94D60080910401A7
S11301C0882321F00E9473000E94830080E00E9433
S11301D05300882399F381E080930401EFCFA29F19
S11301E0B001B39FC001A39F700D811D1124911D07
S11301F0B29F700D811D1124911D0895F894FFCFB5
S1070200E803030008
S9030000FC
