S01B000041744D656761333238502D4C454461727261792E73726563CC
S11300000C9434000C943E000C943E000C943E007E
S11300100C943E000C943E000C943E000C943E0064
S11300200C943E000C943E000C943E000C943E0054
S11300300C943E000C943E000C943E000C943E0044
S11300400C943E000C943E000C943E000C943E0034
S11300500C943E000C943E000C943E000C943E0024
S11300600C943E000C943E0011241FBECFEFD8E048
S1130070DEBFCDBF0E9440000C9453000C940000DE
S11300808FEF8AB983E001C083E08BB92FE33DE0B1
S113009093E0215030409040E1F700C00000880F09
S10D00A0803899F7F1CFF894FFCFF0
S9030000FC
